S00A00006170702E733139A9
S21403340000B562B661B608F03FFD5DF804EB7047A1
S214033410DFF8800A7047DFF8800AA2E0DFF8781A40
S2140334200020087040F2DC5001F037BA3EB50020A9
S2140334308DF8040001F031FA00F08AFA0DF1060166
S21403344002A801F097FABDF908000128F4DABDF9DD
S21403345006000128F0DA01F073FA054600F099FC3D
S214033460B0F5FA7FFAD3DFF8344A2068401C2060B0
S21403347001F03FFB00284CD12060002301A80090F8
S21403348032220A2100F0E8F801A800900023322235
S2140334900A2100F002FC05460A2001F045FB85429E
S2140334A007DA01F026FB002804BF9DF90400002874
S2140334B0EAD001F045FA054600F06BFCB0F5967FBE
S2140334C0FAD301F016FB00BB01A800906FF0C70407
S2140334D000234FF49672214600F0BEF801A8009030
S2140334E000234FF49672214600F0D7FB054620468C
S2140334F001F01AFB854203DA9DF904000028EDD09B
S214033500DFF894190120087037BD01F0F2FA30B1E4
S21403351003E0206818B100F01BFA0120207137BDC4
S21403352080B501F0E6FA28B101F039FA012801D096
S214033530012002BD002002BD00B587B001208DF832
S2140335401500DFF85C0900F0DAFADFF85809039093
S214033550DFF8540900F0D7FADFF85009BEE0DFF8C9
S2140335605009007800B101207047DFF84419C0E025
S21403357070B584B000F088FB01F0E2F9044601F070
S214033580FCF90028FBD101F0F7F90028F7D102A8CF
S21403359000906FF0C70502234FF49672294600F099
S2140335A05BF802A8009002234FF49672294600F0B7
S2140335B074FB00F057F9864203DA01F09AFA002802
S2140335C0EFD000F053F9B0F5FA7F02D200F0B1F96C
S2140335D0E7D000F04CF800F063FB00F039F88442C3
S2140335E002DA00F0A6F9F6D001F0AAF9044600F0D4
S2140335F0AFF900F03BF9C828F9D300F030F800F033
S2140336002BF800F02CF800F048FB04464FF4C87083
S21403361001F08AFA844202DA00F08BF9F1D000F066
S21403362026F800F03DFB00F013F8844202DA00F0BF
S21403363080F9F6D001F084F9044600F089F900F029
S21403364015F9C828F9D3DFF86818012008707FBD7C
S2140336500446B42001F068BA012001F0A6B902A816
S214033660009003234FF496724FF4C871704702A874
S21403367001907823022000907822B421012001F0E3
S21403368093B980B501F079F910B901F075F988B1ED
S214033690DFF82008007B68B1DFF81C08007B0028F1
S2140336A002BFDFF81808007B002803D001F077F983
S2140336B0012800D0002002BD00B587B000208DF899
S2140336C01500DFF8FC0700F01AFADFF8F807039096
S2140336D0DFF8F40700F017FADFF8F007009000A809
S2140336E001F059F907B000BDDFF8E40739E7DFF862
S2140336F0E0170020087070473EB500F0C5FA01F0E9
S2140337003BF90028FBD101F038F90028F7D102A8CD
S21403371001900220DFF8B847215E00F0A3FA00F01C
S21403372035FB00F0A6F8215E00F0C1FA0546B4F9B1
S214033730020001F0F9F9854202DA00F0FAF8F0D057
S21403374001F0FEF8054600F003F900F022FBC82856
S214033750F9D30120207037BD38B501F00EF90446C1
S21403376001F00AF9054601F01AF9032818BF55EACD
S214033770040029D0FFF785FF30BB01F0E1F801F024
S214033780D7F901F0E5F9B42190FBF1F1B42202FB7D
S214033790110080B24142E307DFF834270DD4A307B4
S2140337A00FD4B2F90230640702D415F00A0F02D020
S2140337B0012B02DB05E0EB0701D5518002E0E906A9
S2140337C000D55080012032BD002032BD00B587B041
S2140337D003208DF81500DFF8FC0600F090F9DFF8FB
S2140337E0F8060390DFF8F40600F08DF9DFF8A00C76
S2140337F074E770B584B000F0A0F801F019FA01F090
S214033800CDF81F2822D1DFF8984C207BF0B102A810
S21403381001906FF02C0500F024FA00F0B6FA00F0E1
S21403382028F8294600F043FA00F01CF8864204DA2A
S214033830207B10B100F07DF8F1D001F081F804464A
S21403384000F086F800F012F8C828F9D300F06CF8F8
S21403385019BF64204621B42082214FF4167201F06A
S21403386088F87FBD0646284601F05EB9204601F07B
S21403387068B802A801907823022000907822704747
S214033880DFF85C06DFF82C16007B097B41B1DFF816
S214033890B01C097B09B108B103E010B900207047DA
S2140338A000B10120704700B587B0062000F0AFF8DE
S2140338B0DFF8300600F0B0F8DFF89C0C0EE73EB5F4
S2140338C000F03BF801F0B4F901F068F81F281FD1A7
S2140338D0DFF8AC4C207BD8B100F032F800F056FA93
S2140338E000F02EF800F0E3F905462D2001F01CF950
S2140338F0854204DA207B10B100F01BF8F0D001F00B
S2140339001FF8044600F024F8FFF7B0FFC828F9D3E1
S21403391000F00AF819BF462064218220B4214FF430
S214033920167201F026F837BDDFF88805007B0028FD
S21403393070479DF9080000287047012001F09CBCE1
S21403394002A8019078230220009078222D21704748
S2140339504FF47A720021002001F00BB8DFF8440B15
S214033960DFF85015007B097B41B1DFF8F01B097BBC
S21403397009B108B103E010B90020704700B1012077
S214033980704700B587B0052000F041F8DFF8800BDC
S21403399000F042F8DFF8F00BA0E680B5DFF8EC1B8A
S2140339A00120087001F068FC01F042F94FF4A5729B
S2140339B0FFF7BAFFBDE8084014BF50208220014637
S2140339C000F0D7BFDFF8780B007B58B1DFF88C0B1D
S2140339D0DFF80C25007B127BDFF8C81A22B908B182
S2140339E0087B30B10020704700281CBF087B0028E6
S2140339F0F8D00120704700B587B0042000F007F820
S214033A00DFF8800B00F008F8DFF8E00B66E68DF8C9
S214033A101500002001907047029000200390049048
S214033A208DF814007047DFF8681BFFE1DFF8740AAF
S214033A30007B38B9DFF8A804DFF8541B007B49780D
S214033A40084300D00120704710B5DFF8444BDFF879
S214033A50643494F90020012A07D1187B002807BF95
S214033A609620AA214620642107E032B9187B002855
S214033A7019BF64204621AA2096214FF4A57209B2E5
S214033A8000B200F076FF00F07FFF0246D4E90201A1
S214033A90801A01F049F81F28A4BF0120607010BDEA
S214033AA010B5DFF8EC4A00F07AFF052802D1FFF7DD
S214033AB055FF38B100F073FF06280BD1FFF7E0FE81
S214033AC040B90120207000F05FFFC117C4E902016E
S214033AD0012010BD002010BD00B587B007208DF86B
S214033AE01500DFF80C0B00F00AF8DFF8080B03905C
S214033AF0DFF8040B00F007F8DFF86C0CEEE5019036
S214033B00002002907047049000208DF81400704740
S214033B102DE9FE4F00F0B8F8814601F0ADFB01F049
S214033B208BF8DFF88049DFF8345ADFF8D0AADFF8DD
S214033B30D0BADFF8D08A00F031FF012802D000F0B7
S214033B402DFFE0B9B9F1000F19D102A800904FF08C
S214033B500109002364221421FFF77EFD02A80090CA
S214033B6000236422142100F098F80646142000F07F
S214033B70DBFF8642DFDAFFF7DCFEEFD0DBE700F0A1
S214033B807CF8FFF769FD00F078F800F086F8064643
S214033B90DFF8000C077B4FF47A6000F0C5FF86421F
S214033BA011DA87B998F80C0070B99BF80C0070B955
S214033BB09AF80C0070B9287B78B9207B78B9FFF7A0
S214033BC0B8FEE0D01FE067B998F80C0048B99BF838
S214033BD00C0030B99AF80C0018B9287B08B9207B7A
S214033BE088B100F043F8FFF737FD00F03FF800F028
S214033BF054F806464FF47A7000F096FF864202DACF
S214033C00FFF797FEF1D000F09BFE00F091FF00F067
S214033C109FFFB42190FBF1F1B42202FB110602A828
S214033C200190B6B200F01DF831B200F0AFF8FFF71E
S214033C3020FE31B200F03BF800F04DFC874202DA7A
S214033C40FFF777FEF3D000F07BFE0646FFF780FE15
S214033C5000F068FCC828F9D36DE704A801900AF1C0
S214033C60010A0220009078237822704702A8009069
S214033C700323B4224FF47A71704702A800900323FB
S214033C80FA224FF47A61704700208DF808007047D7
S214033C9004A80090032350226421002000F085BE70
S214033CA002A801907823022000907822B4210020F5
S214033CB000F07ABE0120704700B587B01F20FFF7DB
S214033CC0A6FEDFF8D40AFFF7A7FEDFF8D00A05E55D
S214033CD070B584B0FFF7D8FF0120DFF8B048A070B6
S214033CE000F0D0FB02BFDFF81409007B002803D1E5
S214033CF0DFF8AC0A007BF8B102A801906FF0B305B9
S214033D0002200090F023F02200F03FF800F044F881
S214033D102946FFF7CCFFFFF7A5FD864202DAFFF739
S214033D2008FEF3D000F00CFE0546FFF711FE00F088
S214033D3030F8C828F9D325E000F0ACFB02BFDFF863
S214033D40C008007B002803D1DFF8580A007BC8B1FF
S214033D5000F022F8B42100F019F800F01DF8FFF780
S214033D60A5FF0546FFF775FC854202DAFFF7E1FD7E
S214033D70F3D000F0E5FD0546FFF7EAFD00F009F88D
S214033D80C828F9D3012060707FBD2946012000F0C2
S214033D900BBE284600F0D5BD02A80190F0230220F2
S214033DA00090F022704780B5DFF8E819DFF8F006D8
S214033DB0097B00291CBF017B00290DD1DFF83C18C5
S214033DC0DFF8DC29097B127B0AB129B908E0002950
S214033DD01CBF007B002803D000F0E1FD09281CD19E
S214033DE0DFF82018DFF89807097B00291CBF017B42
S214033DF000290ED1DFF80818DFF8A829097B127B03
S214033E0012B131B9002002BD00291CBF007B002877
S214033E10F8D000F0C4FD0928F4D0012002BDDFF875
S214033E2088094078FFF79EBBDFF8601700204870CC
S214033E30704700B587B009208DF81500DFF86C09C8
S214033E40FFF75DFEDFF868090390DFF86809FFF700
S214033E505AFEDFF8640941E480B500F005FBB8B10B
S214033E60DFF8280701788078084311D100F097FD22
S214033E7002280DD000F092FD022809D000F0FDFACA
S214033E801EBFDFF83809007B002801D1012002BDE0
S214033E90002002BD2CBB002019BC0020D8AC00209B
S214033EA021350300173403001D3403002D340300AB
S214033EB01ABC00202CAD002054AD002068AD0020B5
S214033EC0833603005F3503006B350300713503004B
S214033ED000BC002059370300E9360300EF36030021
S214033EE0A4AD0020813803002DE9F04FDFF89C468F
S214033EF085B000264FF08045B246A56000F036FC3C
S214033F0000F09AFE082001F0A9F907460D2001F0FB
S214033F10A5F9381A512804DBE07810B96071A5605A
S214033F2011E0082001F09AF905460D2001F096F9F4
S214033F30281A10F1500F06DAE07820B901206071D4
S214033F404FF04040A0600120E070A07900B3617993
S214033F5001294FF07E5202D1A260667103E011B9C7
S214033F60A26001216171012803D1DFF85418A16012
S214033F706671022804D1DFF84C18A1600121617133
S214033F80042808BFA260A67100F0F7FC0028FBD146
S214033F90FFF7D3FC00F04CFEDFF82018DFF8280804
S214033FA0097B002902BFDFF8EC17097B002907D13C
S214033FB0DFF84816097B002904BF017B002905D0DA
S214033FC06671007BE8B14FF07F5019E0DFF8FC170D
S214033FD0DFF8FC07097B002902BFDFF8F817097B27
S214033FE0002907D1DFF81816097B002904BF017BD7
S214033FF0002906D001216171007B10B1DFF8D807D4
S214034000A06000F0C1FC054600F06DFA01F09EF9D1
S214034010782301B21A46FFF7B9FE00F064FA01F0FE
S21403402095F901B278237822304600F0BDFC0746A6
S21403403000F01EFA01F08AF900B200F075FD87421F
S21403404002DA00F00DFAE8D000F07AFC074600F03A
S2140340506CFA384600F075FCC828F8D300F000FA6E
S2140340604AD000F091FC00F046FA8346781B01F034
S2140340708FF90146584601F0B7F901F067F9039B3B
S214034080029A01B2FFF782FE00F07EFC00F033FADC
S2140340908346781B01F07CF90146584601F0A4F9E3
S2140340A001F054F9039B029A01B2FFF700FE07469C
S2140340B000F06AFC834600F0DBF90090ABEB0500EA
S2140340C001F066F90146009801F08EF901F03EF919
S2140340D000B200F029FD874202DA00F0C1F9D3D01E
S2140340E000F02EFC054600F020FAFFF752FEC82823
S2140340F0F9D300F0B5F984D100F038FB00F09CFD4D
S21403410000F042FC0546DFF878746FF0590BDFF8D1
S214034110AC06007B002802BFDFF87806007B002889
S21403412011D1DFF8D804007B002802BFDFF89C0615
S214034130007B002807D100F0ADF902BFDFF8C0040A
S214034140007B002803D001264FF0000A06E05FFA42
S2140341508AFABAF1020FA4BF012020716079012800
S21403416040F04B812EBB00F00FFC401B00F0DCFC44
S21403417079281EDBFFF771FD5946FFF707FE00F0AF
S21403418093F95946FFF793FD0546584600F0CCFCD5
S214034190854202DA00F064F9F1D000F0D1FB05465F
S2140341A0FFF7D6FBFFF7F5FDC828F9D300F0ECFBC5
S2140341B0054600F059F9002800F04D814FF08208BB
S2140341C04FF03C094FF4A5720FFA89F10FFA88F005
S2140341D000F0CFFB00F0D1FB60B900F05BF91CBF29
S2140341E0387B002806D100F04DF990D0AC48007B10
S2140341F00028A8D000F0C1FBA071FFF79EFB00F0DB
S21403420017FD00F047F91CBF387B00286AD000F082
S21403421081F9FFF73DFD00F062F9864206DADFF822
S214034220B405007B10B100F01BF9F2D000F04BF997
S214034230FFF7ACFD00F047F9FFF739FD06463C20D3
S21403424000F072FC86420BDA00F024F91EBFDFF89A
S2140342506C05007B002804BF9DF910000028E9D0F8
S21403426000F06EFB0646FFF773FB00F05BF9C82809
S214034270F9D300F04FF9FFF70BFD00F030F9864253
S2140342800BDA387B00281EBFDFF84805007B0028C2
S21403429004BF9DF910000028EDD000F00CF9FFF7DD
S2140342A075FD00F008F9FFF702FD06461E2000F034
S2140342B03BFC86420BDA00F0E0F81EBFDFF8FC0496
S2140342C0007B002804BF9DF910000028E9D000F009
S2140342D037FB0646FFF73CFB00F024F9C828F9D362
S2140342E00120207100F0CEF81EBF6D48007B002829
S2140342F000F0808000F00EF9FFF7CAFC00F0EFF83C
S214034300864206DADFF88C04007B10B100F0A8F8CA
S214034310F2D004A801906FF03B06022000905023D1
S21403432050223146FFF732FD04A8019050230220A5
S214034330009050223146FFF7BAFC00F0CCF88742D3
S2140343400BDA00F09FF81EBFDFF88004007B00281E
S21403435004BF9DF910000028E6D000F0F1FA0646E7
S214034360FFF7F6FA00F0DEF8C828F9D300F0D2F823
S214034370FFF78EFC00F0B3F886420CDA4848007B61
S21403438000281EBFDFF80C04007B002804BF9DF93D
S21403439010000028ECD004A801906FF01D06022040
S2140343A000903C233C223146FFF7F0FC04A8019022
S2140343B03C23022000903C223146FFF778FC00F0B5
S2140343C08AF887420BDA00F058F81EBFDFF8EC03D2
S2140343D0007B002804BF9DF910000028E6D000F0FB
S2140343E0AFFA0546FFF7B4FAFFF7D3FCC828F9D3AC
S2140343F00120207105B0BDE8F08F00282FD12EBB19
S21403440000F0C2FA401B00F08FFB79281EDBFFF793
S21403441024FC5A21FFF7BAFC00F046F85A21FFF7AE
S21403442046FC05465A2000F07FFB854202DA00F080
S21403443017F8F1D000F084FA0546FFF789FAFFF77C
S214034440A8FCC828F9D300F09FFA054600F00CF83C
S21403445000283FF4B3AE4FF03C084FF08209B1E6B4
S2140344609DF9100000287047DFF87003007B704743
S214034470A168DFF86C0301F02BB8DFF85003007B6C
S21403448000287047DFF80C03007B00287047000005
S214034490F9360300DFF83C03007B00287047000072
S2140344A044AE0020B8AD002004A801907823022073
S2140344B000907822704704A801903C2302200090C5
S2140344C03C221E21704704A801905023022000902E
S2140344D050223C2170470746304600F025BB06466F
S2140344E0642000F021BB04A8019002200090A1687C
S2140344F0BB4800F0EDBF074604A8019078230220CE
S214034500009002930393A168B54800F0E1BF000052
S2140345105D39030004A80090032350226421012080
S21403452000F043BA304600F00CBA00214FF47A721A
S214034530084600F01EBA9C480079FFF713B800003F
S214034540CCAD00209848002141714FF08041816036
S21403455000210171C1707047F3370300E0AD0020FE
S21403456000B587B002208DF815009E48FFF7C7FAFE
S2140345709D4803909D48FFF7C6FA9D48FFF7AEB8DF
S21403458058AE0020C5390300BF380300D8AE00205C
S21403459098BB002010B5974C00F001FA032803D00F
S2140345A000F0FDF91F2805D1D4E90401401C41F1B0
S2140345B0000109E0D4E90401002907DB01DC012836
S2140345C004D3401E61F10001C4E90401D4E90401E7
S2140345D0002904DC01DB012801D2002003E00A22C3
S2140345E0002300F0F3FFA06010BD00009B3903001A
S2140345F0A13A03002D3A0300273A030008AE002031
S214034600F4AD00207CAD002080B5FEF795FFFFF7E4
S21403461053F8FFF748F9FFF7B4F9FFF7ECF9FFF79C
S2140346205BFAFFF7D3F8FFF747FBFFF702FCFFF74A
S21403463097FF714800F0B4F9684800F0B1F96F4885
S21403464000F0AEF96E4800F0ABF9624800F0A8F946
S214034650504800F0A5F96B4800F0A2F96A4800F04C
S2140346609FF9564800F09CF9584800F099F96748B6
S21403467000F096F94B4800F093F9494800F090F99A
S214034680634800F08DF9634800F08AF9624800F049
S21403469087F9624800F084F9614800F081F94A48D6
S2140346A000F07EF94A4800F07BF95E4800F074F9A2
S2140346B05D4800F072F95D480621017000214180D3
S2140346C00321418000218180032181800021C18054
S2140346D00F21C180C5210172A62141725921817221
S2140346E0FF21C1720173417381730121C1731F21BD
S2140346F0017402BD80B500F039F800F09DFA40F26F
S214034700DC5000F0CAF83B480021C0E904110171EF
S2140347108160016040F6FF71018300F039F90021E2
S21403472021480170817001BD10B532490A7942F6FD
S214034730E06322B98C689C4201D2002010BD012A96
S21403474006D1AA21017000F011F800F075FA04E012
S2140347508968994224BF8821017000F01AF900F095
S21403476021F9012010BD0000493A0300002000F0A3
S21403477083BD80B500F007F950B1FFF7F7FF00F0EF
S2140347805BFA1C4901200871BDE8014000F001B93D
S21403479001BD000090AD0020B53C0300113B0300B3
S2140347A030AE00201CAE0020D8AE0020A73D03008C
S2140347B01F3E0300293E0300D13C0300CCAD00207E
S2140347C09A9999BF9A99993FA8AE0020E0AD002028
S2140347D094AE00207CAD00200000C0BF40AD00209A
S2140347E000003443593E03003745030045450300A4
S2140347F0E93E0300D8AC00202CAD002054AD0020C9
S21403480068AD0020A4AD0020B8AD002008AE00209F
S214034810F4AD002044AE002058AE00206CAE00205D
S21403482080AE0020B3B80300954503002CBB0020E0
S21403483010B501002C4C07D4012904DB022001F03B
S21403484035F8012104E00021022001F02FF80021B1
S21403485022681269BDE810404320104710B5014690
S2140348600129214C07DA002904D5032001F01EF89C
S214034870012104E00021032001F018F8002122683A
S2140348801269BDE810404520104718480121017001
S21403489041700021418081807047411E8941134A3F
S2140348A0C90F117090807047411E89410F4AC90F86
S2140348B051705080704710B50C4C207828B9B4F965
S2140348C0040001F035F800B200E00020FFF7B0FF67
S2140348D0607828B9B4F9020001F02AF800B200E0C3
S2140348E00020BDE81040B9E70CBC0020ECAE002069
S2140348F000DF01DF03DF05DF06DF07DF08DF09DF91
S2140349000BDF0FDF10DF11DF12DF13DF14DF18DF1B
S21403491019DF1ADF1BDF1CDF1DDF21DF22DF23DFAA
S21403492024DF27DF28DF29DF2ADF2EDF2FDF30DF34
S21403493032DF45DF46DF48DF49DF4ADF51DF52DF3C
S21403494056DF57DF5ADF5BDF5CDF5DDF5EDF5FDF8F
S21403495060DF61DF65DF66DF67DF68DF69DF6ADF29
S2140349606BDF6CDF6DDF6EDF6FDF70DF71DF72DFD3
S21403497073DF74DF75DF76DF77DF78DF79DF7ADF83
S2140349807BDF7CDF7DDF80DF81DF82DF83DF84DF29
S21403499085DF86DF87DF88DF89DF8ADF8BDF8CDFD3
S2140349A08DDF8EDF8FDF90DF91DF92DF93DF94DF83
S2140349B095DF96DF97DF98DF99DF9ADF9BDF9CDF33
S2140349C09DDF9FDFA1DFA5DFA6DFA7DFA8DFAADFC6
S2140349D0ABDFACDFADDFAEDFB0DFB1DFB2DFB3DF5F
S2140349E04F480021017581758174018201220121DE
S2140349F00FF20500FFF7AABF70B501F0E5F9C6B2DE
S214034A0001F0C4F9C5B256EA0500454C1BD0002098
S214034A106075A07C10B9FFF793FFE061207D38B97D
S214034A20E069FFF78EFF0B280AD30120207507E005
S214034A30A07D28B90EB10120A0750DB10220A07586
S214034A400120A07470BD2075FFF77AFFE061A07C9B
S214034A5030B1012060750020A074FFF771FF20625B
S214034A60607D00281CBFA07D002808D0206AFFF7C1
S214034A7068FF41F28931884224BF0020A07570BDCB
S214034A8010B5274C01F052FA208000F032F8616A24
S214034A90627E237EA081A07DA0732088DBB900EB15
S214034AA04000C1EBC10108180A21B0FBF1F140F642
S214034AB0DC00814206D2521CD2B2152A10DB002239
S214034AC0012006E0002A1EBF521ED2B2002A07D1DA
S214034AD00020A07604E05B1E2376DBB203B9014612
S214034AE062766162204601F05BFABDE8104001F091
S214034AF0F3BA80B501F04AF910B901F065F900B1CF
S214034B000120C0B202BD0648807E704780B50549C5
S214034B100968496935208847401E8041C00F02BD99
S214034B20B0AC00200CBC0020002848BF40427047B1
S214034B3010B50446044801F057FB002101700348F2
S214034B4001F052FB046010BD9CA90020A0A9002020
S214034B50F8B5344F384601F047FB0446381D01F0DC
S214034B6043FB054607F1080001F03EFB064607F146
S214034B700C0001F039FB23782B492C4A002B40D13B
S214034B802B6802FB03132B60082702FB03132B601F
S214034B9002FB03132B6002FB03132B6002FB0313BE
S214034BA02B6002FB03132B6002FB03132B6002FB39
S214034BB003132B600346D5F800C002FB0C1CC5F894
S214034BC000C043F804CB7F1ED5F800C002FB0C1CC4
S214034BD0C5F800C043F804CBD5F800C002FB0C1C94
S214034BE0C5F800C043F804CBD5F800C002FB0C1C84
S214034BF0C5F800C043F804CBDDD1C36F336001238F
S214034C0023702B6802FB03112960317801F01F0122
S214034C1050F8212032602A6840F82120306880004E
S214034C208008F2BD9CA900205FF36E3C0D66190058
S214034C306A4901200870704768480178012904BF53
S214034C400021C1600021017070472DE9F047634DD4
S214034C5028780024002840F0BE80092000F0FEFAE1
S214034C6007460C2000F0FAFA8046FFF769FE0D208F
S214034C7000F0F4FA0646082000F0F0FA8246B10384
S214034C80090C05F1180001F0B1FA06B24FEA8A31B1
S214034C90090C05F11C0001F0A9FA82464FEAA801A7
S214034CA001EBA700C103090C05F1200001F09EFAF1
S214034CB007B2782F40F28A2840F285392ADBE86863
S214034CC0FFF73FFE484525D3EA88BA42B8BF4745B3
S214034CD002DAEF80AC7020E0C2EBC200811000EB7A
S214034CE05170B7EBE00F01DB474516DB3C4BA8786A
S214034CF01B68411CA970C9B21B6B0FF2F4009847DE
S214034D00A878042809D1287800B90324FFF718FEE9
S214034D10E86002E0EF80AC706C70FFF711FEE968A4
S214034D20401A484557D3B6F5FA7F1FDB2869FFF7C5
S214034D3008FE48451AD3B5F90800B042B8BF464541
S214034D4014DB00F04FF8B6EBE00F01DB46450DDB56
S214034D50E878401CE870C0B207280AD1287808B95A
S214034D6044F00104FFF7ECFD286102E000202E81E9
S214034D70E870FFF7E5FD2969401A48452BD3BAF5D5
S214034D80FA7F24DB6869FFF7DCFD48451FD3B5F9D6
S214034D900A00824504DBFFF70CFE08B9C24516DBA2
S214034DA0B5F90A0000F01EF8BAEBE00F01DBC245C6
S214034DB00DDB2879401C2871C0B207280BD1287850
S214034DC008B944F00204FFF7BBFD686103E0002066
S214034DD0A5F80AA028712046BDE8F087FCB9002094
S214034DE00CBC0020C0EBC000811000EB5170704774
S214034DF064656361795F636F756E74203D20256417
S214034E000D0A0000DFF8001582890A80828A4A802C
S214034E10028A8A800289CA8082880A8102884A8135
S214034E20C389DFF8E8241380C38A5380438A9380B8
S214034E304389D380C388138143885381C38B0B82F2
S214034E40438D4B82C38C8B82438CCB82C38D0B8367
S214034E50438B4B83018C1182818D5182018D91820C
S214034E60818CD182018E1183808B50837047DFF84B
S214034E70982422F81010DFF8942422F810107047B4
S214034E8080B501F0F5F9BDE80240BBE72DE9F84F20
S214034E90DFF87C44E079002855D0DFF87804006812
S214034EA0806A8047DFF870546978EA78EB7A95F879
S214034EB0059095F80FA095F813B095F817C095F8D8
S214034EC00DE095F815806D7CA78BDFF8506417F01E
S214034ED0070704D0022F10D0042F29D033E0207AFE
S214034EE030B9DFF830241268126901214D2090474B
S214034EF0607A002827D1012112E050F82540348239
S214034F0050F82840B48250F82E4000F01EF8DFF820
S214034F10042430800021126812694D209047002136
S214034F20BDE8F84FDFF8EC231268126950201047EB
S214034F3050F82540348250F82840B48250F82E406A
S214034F4000F003F83080BDE8F18FB48150F82C40B0
S214034F50F48250F82B40748250F82A40F48150F8BB
S214034F602940B48050F82330738150F82220728091
S214034F7050F8210070472DE9F84FDFF89443E079A5
S214034F800025002800F01D81A08BDFF89013DFF8C2
S214034F90906300F0070260790428A4BF0120A07183
S214034FA0022A0FF2883004D0042A24D0052A5CD0C3
S214034FB0FFE02278042AA8BF25700823DFF86423BD
S214034FC000F027F9277800F004F90E2BF8DB237896
S214034FD05B1C23702379042BA4BF002323710023B7
S214034FE000F017F9277900F0F4F8042BF8DB2079A2
S214034FF0401C2071DDE06279042AA8BF6571002396
S214035000DFF8242300F0FAF894F805C000F0DBF884
S21403501036F813C035F817E0F4447F1C26F813C09F
S214035020042FF5DB5B1C042BECDB63795B1C6371E1
S214035030A378042BA4BF0023A370082300F0DEF894
S21403504094F802C000F0BFF836F813C035F817E03E
S214035050F4447F1C26F813C0042FF5DB5B1C0E2BD1
S214035060ECDBA078401CA070A3E06079A74FDFF8C4
S21403507098820428A4BF207904284ADBA079002854
S214035080F2D0A94604EB490036F919B0B0F920A0CE
S214035090ABEB0A00FFF748FD08EB490100B2B1F994
S2140350A0203006EB49028342B4BF108413840AEB14
S2140350B00B03B3F5806FBEBFB2F9203037F819C0C3
S2140350C0634502DA138C1B01138409EB0403B2F95C
S2140350D020C038F819E0F445A8BF002209DAB2F96F
S2140350E0202037F819C06245B2BF01221A7B02F0AE
S2140350F00102088409F10109187B42EA400018738B
S21403510042EA05004500B9F1040FBBDB00206071DD
S2140351102071A0780428A4BF2078042849DBA0794E
S214035120002846D04FF0080904EB490136F9190068
S214035130B1F92010401AFFF7F7FC08EB490100B25B
S214035140B1F91820904202DA1F28A8BF0883B1F9E4
S214035150181006EB490A401AFFF7E6FCAAF82000E7
S21403516009EB0400BAF9201038F819209142A8BFB9
S214035170012109DABAF9201037F819209142B2BF93
S2140351800021017B01F00101027B41EA4202027326
S21403519041EA0500450009F10109B9F10E0FC3DB29
S2140351A001F0DEF840EA450001F05EFE0020A07044
S2140351B0207004F10C00BDE8F44F56490968C96A2B
S2140351C00847BDE8F18F3F053F0D25F81C70002703
S2140351D070473605360D25F81760002604F12007BC
S2140351E035F816C037F81370674404F1200C761CA4
S2140351F02CF81370042EF1DB5B1C7047002526F891
S214035200135000EB430702EBC3057F7831F91770A1
S214035210704704EB43060025358400EB430602EB98
S214035220C305767831F91660704710B5394C226895
S214035230126900214D20904722681269BDE810408C
S2140352400021502010473248C17919B1818B491C7F
S214035250C9B281830120704700207047304901EBB3
S2140352604000B0F92000704700E000BF284940180E
S214035270007B00B101207047254908727047244916
S2140352804872704700204FF4C8711F4A02EB400271
S214035290401C06281185F8DB704710B51C4C2049C6
S2140352A00020A071A0832071607120706070A070D0
S2140352B0E070002203191A7304EB40031A8421F8E2
S2140352C0102001EB4003401C10281A84F2DB002058
S2140352D003460021134A02EBC00222F81130124A99
S2140352E002EBC00222F81130491C0429F2DB401CF1
S2140352F01028EEDBFFF7C6FF00F0BAFFFFF782FDCC
S2140353000120E07110BD000038B90020D0BA00209B
S214035310FCB700200CBC002000F9030070B9002085
S2140353203CB80020C4B4002044B5002000020105A8
S2140353300201030004FF05FF06FF07FF0808090A2A
S2140353400A060B0B0C0A0D070EFF0FFF4100090E92
S2140353507F3915D4D1F11F0114D4400007D2C00100
S21403536040F00040C84048BF6FF000407047C0019F
S21403537040F00040C8404CBF4FF0004040427047EA
S2140353800020704700424FF0004058BFC0437047AC
S214035390002840F10980F446404200F005F850F03A
S2140353A000406047002800BF0AD0B0FA80F188406A
S2140353B0D1F19D01C905020672F1004241EB1020AE
S2140353C070470168001D00290DD00268001DD30731
S2140353D002D5521E19EB020200231360121D091F89
S2140353E00029F9D1EDE7704790EA010F44BF81F039
S2140353F0004101F061BD00BF431A4FF000423EBFBB
S2140354005340C01AC91800BFD3095FEAD05C13EB38
S214035410400F34BFB3EB410F40E07CEBD1530CD3CA
S21403542042EA012122D8D1EB402009D3400A28BF03
S2140354305FEA500140EBCC507047401A15D040024B
S214035440B0FA80F2521C9040400A4FEA3C23B3EB7A
S214035450026384BF00EB730007E040F400001A16F3
S214035460DB07C2F10102D04018437047182BFCDC5F
S21403547031FA03F202FA03F3591A38BF42F0010273
S214035480D2EB40203CBF4000ACF1010C5FEACC5CA1
S214035490C20572F100414CEB5020704713EB400FEE
S2140354A00FD24B0009D0ACEBD153022B03DB4902DE
S2140354B0172BDDDD70479143401A4300D5D10020FA
S2140354C0704713EB410FD0D36FF000007047000016
S2140354D010B5FF2313EAD0541DBF13EAD1529C42E2
S2140354E09A4239E0A41ADA0780EA0103134042EA33
S2140354F0012142EA0020421A3CBF641E01EB42022D
S214035500090AB2FBF1FE01FB1E221202B2FBF1F006
S21403551001FB10226EF30F201202B2FBF1FE4EEADD
S21403552000207F3406DDFE2C24DA53EA500050EBCD
S214035530C45010BDD4F1020401FB1E2240F080715A
S214035540192C1DDC21FA04F0C4F12004A1401143F8
S21403555071F10042584110BD9C421ABF03EAD15272
S2140355609A420FE080EA010E0EF00043400004D09A
S214035570490016D143F0FF4010BD490008BFD3438E
S214035580180010BD9C4205D1D21AF7D001F0004195
S214035590484010BD4A0212BF0846484000F000408B
S2140355A010BD4AB90902B1FA81F2914044B1A41878
S2140355B0C00140F000409EE7C90141F0004152425D
S2140355C00002B0FA80F4A040141B94E713F0004CDA
S2140355D003D55B42524263F100039CEA210C00F0C0
S2140355E0178010B5644603D34942404261F1000177
S2140355F000F00EF8640004D34942404261F1000112
S214035600244203D55B42524263F1000310BD0000FF
S2140356101B4213D1094236D12AB18446B0FBF2F0BD
S21403562002FB10C2704701F081BCFCD300220023AA
S21403563070470B000200002100207047904271EB78
S214035640030CF6D370B5B1FA81F4B3FA83F52C1BC9
S214035650A340C4F1200532FA05F63343A2405FF0B7
S2140356600046E64002E05B085FEA3202841A71EB0A
S214035670030524BF204629467641F4D302000B00D7
S2140356803000002170BD012ACFD970B5140C20D08C
S214035690B1FA81F4B2FA82F5C4F120046419B4F1C4
S2140356A02006D6D3B2405FF00044F440002502E063
S2140356B052085FEA3303C61A71EB020E24BF304664
S2140356C0714664416D41F3D302000B0020002900AC
S2140356D070BD0C46B1FBF2F102FB11452D0445EA01
S2140356E01045B5FBF2F402FB145580B240EA0545BB
S2140356F0B5FBF2F002FB105240EA044070BD000016
S21403570070472DE9F0477F4C226894B0926C0221D3
S214035710022090470521ADF802107B4D23684FF415
S2140357207A7900214FF480786860ADF80090019193
S214035730ADF80880754EDB6B00AA31469847062005
S2140357400490022700F08BF8DFF8C4A1236868688A
S2140357508DF80C7000F071F87F1C042FF6DB00F058
S21403576070F80321ADF802102860ADF8009000F041
S2140357706DF80620049001208DF81400002023689D
S21403578000F071F88DF80C0003AA286800F056F8AC
S21403579000F057F84FF48771ADF800100621ADF806
S2140357A00210A86000F052F806200490002600F0CD
S2140357B056F82368A8688DF80C6000F03EF8761C4F
S2140357C0042EF6DB02212268926C0B2090474FF4DE
S2140357D03471ADF84010E86000212368ADF842103C
S2140357E01291ADF84C8010AADB6B4A4998474A4998
S2140357F0236807200A9009AA01208DF82C008DF84B
S2140358002D000020ADF82E008DF8300001208DF815
S21403581031000020ADF83200ADF838000F900120BB
S2140358208DF82400DB6BE8689847E8683B4900225C
S214035830FFF776F814B0BDE8F08703AADB6B514692
S21403584018472268926C0121022010470021236822
S2140358500191ADF8088000AADB6B3146184701209A
S2140358608DF8140000208DF81500ADF81600ADF87D
S2140358701800ADF81E000890704738B5214C224D2D
S21403588021682868C96C884721686868C96C884796
S2140358902168A868C96C884721682869C96C884745
S2140358A0E8682168C96CBDE83440084780B502281B
S2140358B0ADF80010144B0AD0032810D0042818D0D3
S2140358C007280FD0082811D0092817D001BD00AA31
S2140358D0134958680B4B1B68DB6B984701BD11498E
S2140358E000AAF6E700AA4FF00111F2E700AA0E4954
S2140358F0EFE7186800AA4FF00111EBE7D8680B49E9
S21403590000AAE7E70CBC002068BB002005000100E6
S21403591006000100170001001900010001570300EB
S2140359200D0001000B000100090001001100010039
S2140359306421484340F62C6190FBF1F06528A8BF2C
S21403594064200A214843704780B501F004FBBDE894
S2140359500140FEF7B0BF10B5074C207830B90122DE
S21403596064210648FEF7F2FF0120207001F012FBC7
S214035970BDE81040FEF789BF1CBC00204959030050
S21403598044F29D71484300010014704780B501F04E
S21403599027FB4FF06632DFF8003401F037FBDFF801
S2140359A0FC33002201F032FB02460B464FF0663012
S2140359B0DFF8EC1301F0FCFBDFF8E823DFF8E8334D
S2140359C001F0B6FCDFF8E433002201F01FFB01F020
S2140359D0D3FD00B202BDF8B5FEF7F0FFDFF8D04303
S2140359E021680A3181423DD2FEF7E8FF20600E208F
S2140359F0FEF7EDFF044600F099FAFFF7C1FFDFF864
S214035A00B4532A68126B01460FF2D830904701F060
S214035A10D9FD806D80472A68126B01460FF2DC3091
S214035A20904700F086FA074600F080FA064624B24E
S214035A3040F6E4406043C21240F2B63100EB125027
S214035A40A1EB2030FFF7A4FCDFF86C13FFF740FD53
S214035A50FFF77CFC2C68246B02463B4631460FF26C
S214035A60B030A047F1BD80B5D44800214161C16183
S214035A70816101704181C1800181818140F62C6082
S214035A80FEF7A3FFBDE802401320FEF79DBFCB48F9
S214035A904089704780B50E20FEF799FFBDE80240A7
S214035AA000B273E710B5FFF7F5FFC54C6168C92868
S214035AB0B8BF491C01DB01B1491E61600846C149F4
S214035AC0884201D3012010BDFFF7E4FF2188002898
S214035AD048BF491C01D401B1491E218041F27171AE
S214035AE02088884202DB4FF0FF3010BD002010BD37
S214035AF0B348002141600180704710B5FEF762FF8E
S214035B000120FEF75EFF00F01DF9AC4CFEF756FFD2
S214035B1000F01CF900F00BF960610320608110BDF2
S214035B2070B5A64CA34DE07890B9206B401CC928ED
S214035B3020630DDB207958B92868006C80470A2853
S214035B4006D10021012001F0DBFD0120E070207169
S214035B50208A40B900F0EAF92A682082218A126B6B
S214035B600FF2C02090474FF4696000F0E5F938B1B2
S214035B7000206081012020810020FEF722FF0DE037
S214035B802089D8B140F61D6000F0D6F948B1002050
S214035B90FEF717FF052060810120A070BDE8704066
S214035BA019E740F60E6000F0C7F920B10020208107
S214035BB0FFF7A3FF13E06081208110E0B4F9121011
S214035BC0208A0F3981420ADA40F61461884206DBDE
S214035BD04FF0FF306082FFF790FF0120A07047F27E
S214035BE03055A089A842BCBF401CA081FFF7F3FE36
S214035BF06289A089052A40F61F264FF4FA7128D831
S214035C00DFE802F00328396C94920020E080A0704D
S214035C10FEF7D4FE00F09AF800F089F86061FEF70C
S214035C20D1FE304600F088F930B901206081FEF7D6
S214035C30C8FE00F087F809E0022060810120FEF725
S214035C40C0FE00F07FF8FEF7BAFEE062FEF7B6FE8F
S214035C50A06270BD4FF49670E081FEF7B4FE304646
S214035C6000F06AF908B102206081FEF7A7FE00F093
S214035C705EF8616928E0A842B8BFDC21E181E089CB
S214035C80FEF7A1FEFEF7A2FE18B1FFF70BFF0128F1
S214035C9005DAFFF707FF002801D4607878B1002003
S214035CA06070FFF725FFFEF789FE00F040F8E0611D
S214035CB0FEF785FE2062052060810120A070FEF7B6
S214035CC07DFE00F034F8A169401AF1282ED3FEF7C2
S214035CD075FE00F030F80120A07070BDA842B8BF72
S214035CE0DC21E181FEF772FE18B1FFF7DBFE012827
S214035CF005DAFFF7D7FE002801D4607838B1002014
S214035D0060700120A070FFF7F3FE05206081FEF7A8
S214035D1055FE00F00CF8A169401A3D2806D3FEF79D
S214035D204DFE00F008F870BD0120208170BD3C21B7
S214035D30B0FBF1F070473C21B0FBF1F06062052048
S214035D40608170474FF4E170FEF73DBE3C21B0FB27
S214035D50F1F0A061FEF732BE10B5184C0020E070DB
S214035D60208220632071A07860B100F0DFF8114A2A
S214035D70126860820146126B0FF2BC009047002047
S214035D80A07010BD4FF0FF30608210BD80B509498A
S214035D90096849694B2020E066660A400000303FE8
S214035DA06666EE3F3D0AD7A3703DDA3F00408F405C
S214035DB0FCBB00200CBC002085EBD13EE8AB0020EA
S214035DC0D4BB0020C1D4010080B5014902E000BF66
S214035DD00CBC00200968496949208847401E804159
S214035DE0C00F02BD626174746572795F76616C740C
S214035DF06167653D25640D0A0000000063686172F3
S214035E0067696E672073746174653A2564000000E1
S214035E1020763A256420633A2564206D4120743A3F
S214035E2025640A006265666F726520766F6C74205F
S214035E303D202564200D0A00616674657220766F26
S214035E406C743A25640D0A0010B51220FEF7BFFDE8
S214035E504E4C00F054F8218A00F055F82080208834
S214035E6020821320FEF7B3FD00F049F8618A00F0A4
S214035E704AF86080608860821020FEF7A8FD00F074
S214035E803EF8A18A00F03FF8A080A088A0821120E7
S214035E90FEF79DFD00F033F8E18A00F034F8E08069
S214035EA0E088E0820E20FEF792FD00F028F8218BB2
S214035EB000F029F82081208920830C20FEF787FD37
S214035EC000F01DF8618B00F01EF860816089608326
S214035ED00F20FEF77CFD00F012F8A18B00F013F8FC
S214035EE0A081A089A0830F20FEF771FD00F007F8BC
S214035EF0E18B00F008F8E081E089E08310BD0A2119
S214035F0090FBF1F0704701EBC1010A2291FBF2F11D
S214035F100818704710B51E4C207830B901220521A9
S214035F201C48FEF713FD0120207010BD1748808B18
S214035F3070471648C08B704714498A8B9042894134
S214035F40C80F704738B51148C08BADF80000BDF8D0
S214035F500000FFF727FA4FF0665101F0E5FB0E4904
S214035F6001F0E2FB0C49FFF7B3FA04460B4821465F
S214035F7001F0DAFB05464FF07E502146FFF734FA70
S214035F8001462846BDE83440FFF7A2BA8ABA002085
S214035F9018BC0020495E03003333534000003C42E4
S214035FA0F8B5744D044600F0EBF807282868006C33
S214035FB0B4BF0127002780470228ACBF012000207A
S214035FC007426D4E09D000F0DBF8042805D0002008
S214035FD0B07070703070F070F1BDA08938B9717808
S214035FE0491CC9B297290BDB0021F17008E0B07891
S214035FF0401C0021C0B2022802DB01220020F270FE
S214036000B07071703078012804BFF07800283CD156
S21403601000F0B6F8012803D000F0B2F80C2834D10B
S2140360200220F07000F0ACF807282868006CB4BFB4
S2140360300127002780470228ACBF01200020074223
S21403604023D100F09DF808281FD029680FF23810D6
S214036050096B8847A17B012912D100F071F9032847
S21403606005D129680FF23010096B88470DE02968BF
S2140360700FF23010096B8847012001F0CDFB04E0D6
S2140360802A680FF23010126B9047F0783070F1BD2B
S214036090704738B500240021142001F031FB354D3C
S2140360A002E00A20FEF72DFC01F028FB0028F8D1B9
S2140360B02A681269641C00215B209047FFF7E8FFFB
S2140360C02A68126901215B209047FFF7E1FF4FF62C
S2140360D0FF708442ECDB31BD38B5284CFEF709FD72
S2140360E018B100206080A08042E0224DFFF71EFF1B
S2140360F040F64B21884213DAA088401CA08080B269
S214036100B0F5FA7F35DDFEF7F4FC90BB29680FF295
S214036110B000096B88470020A080BDE83140B8E78F
S214036120FFF704FF40F62431884216DA6088401CE5
S214036130608080B2B0F57A7F1BDD0020608000F0BF
S2140361401FF8032815D129680FF28400096B8847C6
S214036150BDE83240012001F05FBBA08808B1401EB5
S214036160A080608808B1401E6080207808B1401E79
S214036170207031BD0CBC002004BC0020AABA00204D
S2140361802868006C00470000646F636B206B6964CB
S2140361906E6170200D0A0000772064726F700D0A1E
S2140361A0000000006E65656420746F20646F636B87
S2140361B00D0A00007374613D25640D0A000000009B
S2140361C062766C2C73687574646F776E0D0A0000C4
S2140361D0626174206973206C6F772C676F20686F19
S2140361E06D652E2E2E0D0A007047000030B5B0F9EF
S2140361F002400388A5B29D4202D22A461D46134694
S2140362000A46A94288BF2A469A42048038BF1A46DD
S214036210418090B230BD12490870704780B510486F
S214036220017841B100214170FEF730FEFEF7A3FE70
S214036230FFF709F807E0417829B901214170FFF714
S2140362402CF8FEF7F2FF012002BD80B5FFF725F814
S214036250BDE80840002203490120FEF776BB000094
S21403626010BC00201D62030070470FF26C007047DD
S2140362700FF2040070470000FFFFFFFFFFFFFFFF62
S2140362802C012C012C012C012C012C012C012C019E
S2140362900000DC05DC05DC05DC058A028A02580200
S2140362A05802F401F401F401F4010000C3004B00AA
S2140362B09600E100A5008700B4005A002D008D006B
S2140362C0D20078001E00C8000501FF000000F100A0
S2140362D0F400F800FC0000002C0EC409BC021E0AE1
S2140362E000000000000000000000824200004D4352
S2140362F000800E4400809D4303003200230000000C
S2140363000100000000000000000000003601360116
S21403631036013601D200000000001D000100130004
S214036320C2010000000000003C0000000000000066
S214036330000000003700000000000000020200001A
S21403634038B500F01FF82B20884700B902242968C7
S21403635049692C20884708B944F00104204632BD19
S21403636038B500F00FF84F20884729684969012897
S21403637008BF01244E208847012808BF44F00204C2
S214036380204632BDDFF83058296849690024704733
S21403639080B5FFF7D7FDFEF7D9FF80B200210FF6D1
S2140363A06C128B5C834203DB491CC9B21129F8DBF0
S2140363B000290EBF0120481EC0B200EB8000C0B209
S2140363C002BDF8B5DFF8F4570446E888844214D0D3
S2140363D0687820B1002000F0DCFAFEF7CAFAA87845
S2140363E048B10020A870FEF75FFA0020FEF755FAC2
S2140363F0002000F0D6FD0020E870002CA978EA788B
S21403640095F801C0DFF8B0776FF0C70340F6C41005
S21403641040F2E93600F09F82012C00F09980022CAE
S21403642000F09C80032C00F09F80042C00F0A280D8
S214036430052C00F0A180062C00F0A080072C00F0AD
S2140364409F80082C00F09E80092C00F09D800A2C6B
S21403645000F09E800B2C00F09D800C2C00F09C809E
S2140364600D2C00F09B800E2C00F09A800F2C00F071
S2140364709980102C00F09A80112C00F09A80122C30
S2140364801CBF132C142C48D0152C00F09880162C07
S21403649000F0C780172C00F0C780182C00F0C780C8
S2140364A0192C00F0C7801A2C00F0C7801B2C00F0B4
S2140364B0CB801C2C00F0D8801D2C00F0E2801E2C14
S2140364C000F0E6801F2C00F0E980202C00F0F58019
S2140364D0212C00F00181222C00F00B81232C00F0EC
S2140364E01A81242C1CBF252C262C30D0272C14D004
S2140364F0282C2CD0292C00F019812A2C33D02B2CB5
S21403650025D02D2C00F026812F2C00F01481302C62
S21403651000F01381312C15D0322C00F01E82332C60
S21403652000F03F81342C00F01B81352C00F01581E0
S214036530362C00F07B81372C00F0B281382C00F02B
S214036540D881392C00F0EF81402C00F0F48102E270
S214036550FEF713FA01282870F9D1FDE1FEF70DFACC
S21403656002282870F3D1E4E0FEF707FA042828701F
S214036570EDD1DEE0032008E0002006E0022004E080
S214036580012002E0042000E00520FEF76DFEE3E1B3
S2140365900B2008E00A2006E00D2004E0082002E0B5
S2140365A0092000E00C20FEF760FED5E1FFF7C8FEE9
S2140365B002E0FFF7C5FE400800F00100CCE1FFF75C
S2140365C0B5FCA860A9683A680FF2F850126B9047BA
S2140365D0FFF7ACFC0090A0F64160B0F5987F1FD89B
S2140365E0012200A90020FEF7E3F9297945F2AA5013
S2140365F011B1009981420FD0012129710090012227
S21403660000A90020FEF7D3F9FFF790FC00900122C3
S21403661000A91046FEF7CBF90021062001F070F81A
S2140366209BE1FFF7B5FE97E1FFF7B0FB94E1FFF7B9
S21403663031FA91E1FFF7C8FB8EE1FFF72BFAA8606A
S214036640A9680FF2905062E0012068704FF416724A
S214036650C8210020FEF78DF91020FEF7B8F9A860D0
S214036660A9680FF2885052E000F092F9C820FEF7AE
S21403667080F91120FEF7ABF9A860A9680FF28850DD
S21403668045E0012068704FF416721946002002E0B8
S21403669000F07EF91846FEF76CF95CE129B94FF471
S2140366A02F70FEF701F90120A8701220FEF78FF96C
S2140366B0A860A9680FF26C5029E029B94FF42F702F
S2140366C0FEF7F2F80120A8701220FEF780F9A86002
S2140366D0A9680FF268501AE019B9FEF7DEF8012030
S2140366E0A8701320FEF773F9A860A9680FF260502C
S2140366F00DE019B9FEF7D1F80120A8700020A860B4
S2140367001320FEF764F9A860A9680FF25C503A6894
S214036710126B904721E129B940F61E2000F041FC98
S2140367200120A8700C20FEF752F915E1FEF755F983
S21403673012E1012010E102200EE11AB90120E870EF
S21403674001F07AFE01F07CFEA860A8680128C0F27A
S2140367509E8099E0FEF740F9FEE000F043F9FCE086
S2140367600020A860FEF709F9287000F0F8F8A96081
S2140367704208A96802F0010241EAC201A960800842
S214036780A96800F0010041EA8000A860FFF7D8FD81
S21403679000F00102A96841EA420100F0F3F8084359
S2140367A0DAE00020A860052000F0E2F846EAC02000
S2140367B0A860032000F0DCF846EA8020A8600220E8
S2140367C000F0D6F846EA4020A860012000F0D0F892
S2140367D046EA0020A860002000F0CAF846EAC01087
S2140367E0A860042000F0C4F846EA8010A8600B20D6
S2140367F000F0C5F846EA4010A8600D2000F0BFF888
S21403680046EA0010A860092000F0B9F846EAC0007E
S214036810A8600C2000F0B3F800F0ADF846EA40009C
S214036820A8600A2000F0ABF8304395E01AB90120BF
S214036830E87001F001FE0020A860032000F095F840
S2140368403843A860022000F090F847EA4000A860AA
S214036850012000F08AF847EA8000A860002000F0D4
S21403686084F847EAC000A860FFF76AFD00F077F8EF
S21403687000F088F841EA4010A86001F0E1FD8001CD
S214036880A9680143A96010B1FEF75AF82861FEF71C
S21403689057F82969401AB0425FD301F0CDFD5CE09A
S2140368A00020A860FEF769F828700B2000F067F850
S2140368B03043A8600D2000F062F846EA4000A86066
S2140368C0092000F05CF800F056F846EAC000A8601D
S2140368D00A2000F054F846EA0010A8602878A96851
S2140368E000F0010241EA421100F04CF841EA801040
S2140368F032E0002002F056F8592808BF042006D0DC
S214036900FC2808BF022002D0A62805D10120A860D3
S214036910FEF716F8E86020E0E868FEF712F8B0F530
S214036920167F1AD917E0BCF1000F04BF0120687068
S2140369300120A87011E00020A860FFF727FA18B11D
S214036940A86840F04000A860FFF73EFA28B1A868A0
S21403695040F0010000E00020A860EC80F1BD00F0EC
S2140369600102A96841EA02117047AF68FEF77CBCD2
S214036970AE68FEF779BC46EA8000A8600820AE68D9
S214036980FEF773BCA9604008A96800F001007047D1
S214036990012068704FF416720021704738B502F074
S2140369A001F8864C844BA2681B681B6B0546294678
S2140369B00FF2C820984705F0C000C02808D115F08C
S2140369C00F0005D00120A060FDF7BAFFE06031BDDF
S2140369D0E068FDF7B6FF40F2E93188428041C00F18
S2140369E0A06031BDF8B5754C0020A0600025284690
S2140369F001F0D8FF00F0C001C02904EB850607D1DB
S214036A0010F00F0004D00127FDF79AFF706107E02E
S214036A107069FDF796FF40F2F5118842BF41FF0FFC
S214036A20A0686D1C47EA4000062DA060DFDBF1BDC1
S214036A302DE9FC4100200090019040F2E9305F4CC4
S214036A400FF26426E1885C4F0FF24428642512296E
S214036A5065D0132965D0142965D0152914D01A29B1
S214036A601DD01B2918BF1C2919D01D291FD01E296C
S214036A702DD01F2918BF202911D0212918BF22295C
S214036A800DD0322951D053E0A06840F64A218842FF
S214036A900BDBA06840F62D6188423DDB05E0A1686C
S214036AA0012902DBA168814236DB002035E000F0D5
S214036AB042F801A900A8FDF791FF00F051F800F095
S214036AC047F800F03EF801460FF2F4100EE000F02F
S214036AD032F801A900A8FDF781FF00F041F800F0A5
S214036AE037F800F02EF801460FF2F0103A68126BF2
S214036AF09047BDF90060BDF90200801BFEF714F84D
S214036B0007463046FEF710F805FB07F191FBF0F059
S214036B100628A8BF002000DA0120A06008E00020B5
S214036B2004E0012002E0022000E00320FFF736FF26
S214036B30A068BDE8F6810DF106010DF10200FDF730
S214036B4019BFBDF90200BDF90010401AFDF7ECBFEE
S214036B503B68BDF90420BDF900101B6B304618478F
S214036B603B68BDF90620BDF902101B6B404618476B
S214036B7080B500200090012200A9FDF719FF0098B8
S214036B8045F2AA5188420FD1012200A90120FDF740
S214036B900FFF094A009912680FF25C10126B9047B8
S214036BA0009880B2FDF7E3FE01BD054800680028A3
S214036BB018BFFFF706BC70470CBC0020D0B90020F6
S214036BC0C8BB0020434D445F4241543D25640D0A33
S214036BD000000000434D445F444F434B5F43555210
S214036BE052454E543D25640D0A000000434D445F54
S214036BF0574845454C5F4C5F464F52574152443DBC
S214036C0025640D0A00000000434D445F5748454580
S214036C104C5F525F464F52574152443D25640D0A1E
S214036C2000000000434D445F4D41494E5F464F52BE
S214036C30574152443D25640D0A000000434D445F0E
S214036C404D41494E5F5245563D25640D0A000000EE
S214036C50434D445F534944455F464F525741524460
S214036C603D25640D0A000000434D445F53494445E7
S214036C705F5245563D25640D0A0000006972303A9E
S214036C8025642C726573756C743A2564200A0000BB
S214036C906C6566745F6D3A25642C72696768745F09
S214036CA06D3A2564000000006C6566745F733A25D0
S214036CB0642C72696768745F733A25640D0A000072
S214036CC0434D445F574845454C5F4C5F5245565FBE
S214036CD05350443A25640D0A00000000434D445FB8
S214036CE0574845454C5F525F5245565F5350443AAA
S214036CF025640D0A00000000736574206164632038
S214036D0076616C75653A25640D0A000094755C47D8
S214036D10362A2019140F0C0A08060504030000007F
S214036D2070B5584D584E288A401C0024288200F01F
S214036D3067FD86F8200031460220FDF700FE534823
S214036D403178327C28606C73914230787178727C2B
S214036D50287118BF0124707868719142B078B178B1
S214036D60B27CA87118BF0124F078E871914230799B
S214036D70F178F27C287218BF012470796872914208
S214036D803179327DB079A87218BF012491427179A6
S214036D90727DF079E87218BF01249142B179B27D11
S214036DA096F82000287318BF01249142F179F27DEA
S214036DB018BF0124914204BF96F82110884200D1DF
S214036DC0F4B1B5F91000324B1B68E8811022314844
S214036DD05B6B006829469847307830747078707417
S214036DE0B078B074F078F074307930757079707567
S214036DF0B079B075F079F07596F8200086F8210022
S214036E0070BD2049224B244A1B6808710A60002083
S214036E1048710822B1F91000C88003E01B68088196
S214036E200A600A221B485B6B00681847154B1B4A0F
S214036E3058601972002058721A600C22B3F91000B9
S214036E4058811946124B13481B6800685B6B18473A
S214036E500C494A69824206D0486048610C4BB1F936
S214036E6010000F4ADAE7704706498A69824206D05D
S214036E7048608861064BB1F910000A4ACEE77047AE
S214036E800000000010BB002068BA0020AA55AA1014
S214036E900CBC0020ACBB0020AA55AA11AA55AA1305
S214036EA0AA55AA14AA55AA1590EA010F44BF81F061
S214036EB00041FEF7A1BA00BF421A3CBF801A8918E8
S214036EC04FF0004CC0F3C752FF2A24D0C1F3C75378
S214036ED013B3D21AD2F1190327DD4CEA01214CFA77
S214036EE003F321EA0303D140C20D4CEA0020401805
S214036EF034BF20EA0C004CEA5000D20553EA006384
S214036F0073EB0C0C52EB1020420012F1807F38BF5B
S214036F107047C00DC0057047490212BF9A4200EB86
S214036F205120F8E7D2F11703D9D570477047000010
S214036F3010B5044621460420FEF7B8FC214A126821
S214036F4012692100BDE8104018BF01213620104702
S214036F501D490870704710B51B4C207838B9B4F932
S214036F600400FEF7E5FC6080B4F9020000E00020B0
S214036F70BDE81040DCE780B50C20FDF728FD14289B
S214036F8006DA1148B0F90400012801DB012002BD2E
S214036F90002002BD0C480121017000214180818040
S214036FA07047411E8941084AC90F117040F62C618B
S214036FB0091A918009B2034A0FF210001268126B85
S214036FC0104700000CBC00208EBB002070776D5F5E
S214036FD0766F6C746167653D25640D0A00000000DA
S214036FE0010040F10780F446404200F003F851F0F8
S214036FF00041604709D0B0FA80F18840C91CC1F54A
S2140370008461090501EBD02140057047B0B581EADC
S214037010030C0CF0004C40F2FF7515EA11541DBF2B
S21403702015EA1357AC42AF4239E0E41923EA455355
S21403703043F48013C90241F0004141EA505EC7029F
S2140370401100A7FB020200284FF00000EEFB012010
S2140370504FF00001E3FB072118BF42F0010240187E
S21403706000214941E3FB0E01A4F580640F0302D21D
S21403707052004041494154F101046CDD470872F166
S214037080004250F1000051EB0451A1F580115CBFA2
S21403709041EA0C01B0BD4CEA05510020B0BD05EA3B
S2140370A01357AC4214BFAF4241E050EA410E1CBF37
S2140370B052EA430E02E061460020B0BD24423C443F
S2140370C01BD15FEA070EF6D0090302BF0146002074
S2140370D0AEF1140EB1FA81F7AEEB070401FA07FE20
S2140370E00C37C7F1200100FA07F7C8404EEA000E36
S2140370F023EA455343F48013A2E733F00043B3FA7D
S21403710083F704BFB2FA82FE77440B3FE41BB7F162
S214037110200E2FBF02FA0EF3BB40C7F1200E22FA51
S2140371200EFE38BF43EA0E03BA40641C82E750EAF9
S214037130410E14BF52EA430E6FF000014FF40017DE
S21403714017EB430F8ABF194617EB410FB5E74CEA17
S21403715005510020B0BDD4F10104B4F120070FDAC5
S214037160C4F12007520828BF42F0010210FA07F5BF
S21403717001FA07F7E1BF2A43E0403843E1400FE056
S214037180352C98DCC7F1200452EA400220FA07F2B5
S21403719018BF42F0010231FA07F0A1400A4300216A
S2140371A072F1004250F1000051EB0C01B0BD00003B
S2140371B070B44FF0004591EA030F44BF6B4001F0F3
S2140371C029BC00BF841A71EB030604D26E40001B71
S2140371D0B141121973414FF4001C1CEB410F34BF2D
S2140371E07CEB430684E00C0DA4EB1356362E7DDCB5
S2140371F0012E43DC45EAC32343EA525312BFD202AD
S21403720092025B08240545EAC12141EA5051D2EBBC
S214037210C020994125D407D1B0FA80F610FA06F1BA
S21403722064D00020203608E0B1FA81F6B140C6F1FA
S214037230200220FA02F21143B0404FEAF474B4EB92
S214037240465434F001064FEA74040AD8D6F50016FD
S214037250760D04F00044F04061FA06F25040F14027
S2140372604840C00A40EA415021F0004128BF5FEA87
S214037270500550F1000044EBD12137E045EAC32323
S214037280DB0A45EAC121C90AB6F120050EDD42EA4A
S2140372900242120CC5F1200603FA06F6EB4042EA58
S2140372A006056D42984161F100010DE062FA06F5AC
S2140372B0F240554063FA06FC82EA0C02F3405A4059
S2140372C06D42904161EB030111F4801F05D1641EEA
S2140372D0620502D06D004041494121F48011430804
S2140372E075F1004350F1000041EB045170BC704748
S2140372F01CEB410F15D223F0004352EA43060BD092
S2140373004FEA4C0CBCEB410F04D80C0D661E342E12
S214037310B7DDEBE7801A994150EA410608BF002122
S214037320E4E708BF1CEB430F28BF6FF00001DDE75F
S214037330F0B540F2FF7581EA030C0CF0004C15EA39
S21403734011541DBF15EA1357AC42AF42E5E0BC41EA
S214037350C1F31301C3F31303801A994143F4801353
S21403736004D2641E4000494180185941C90241EACB
S2140373705051B1FBF3F603FB1611A2FB0675D7EBD0
S214037380C020A94102D2761E80185941C90241EA9B
S2140373905051B1FBF3FE03FB1E11A2FB0E75D7EB98
S2140373A0C020A94103D2AEF1010E801859418902CB
S2140373B041EA9051760546EA8E2EB1FBF3F603FBBF
S2140373C01611A2FB0675D7EB8020A94102D2761EC2
S2140373D080185941C90241EA50514EEA060EB1FBE4
S2140373E0F3F603FB1611A2FB0675D7EBC020A941E3
S2140373F002D2761E80185941C90241EA5051B1FBA8
S214037400F3F703FB1711A2FB0735D3EBC020A94103
S21403741067F100070CBF004247F0010766F3D52764
S2140374204FEA1E31B80814F5806412DDBD0775F106
S214037430004250EB0E5051EB045111F5801F5CBF18
S21403744041EA0C01F0BD4CF07F6141F0E0410020C1
S214037450F0BDBD076D0840EA0E5041F48011D4F12B
S2140374600104B4F120060ADAC4F120060200E04063
S21403747001FA06F3E1401843B24015430EE0342CFC
S21403748013DCC6F1200445EA40056D0820FA06F22F
S214037490154321FA06F0A1400D43002175F1004281
S2140374A050F1000051EB0C01F0BD00205FEA0C0127
S2140374B0F0BDCFB992185B41B3FA83F704BFB2FAB3
S2140374C082F6BF190B3FB7F120062FBF02FA06F369
S2140374D0BB40C7F1200622FA06F638BF3343BA404C
S2140374E01CB1E419641E33E77F4231F00041B1FA60
S2140374F081F404BFB0FA80F6A4190B3CB4F120065D
S2140375002FBF00FA06F1A140C4F1200620FA06F6C2
S21403751038BF3143A0403C1B1AE7AC421ABF05EA0A
S2140375201357AF4212E050EA41061CBF52EA430625
S214037530BFE750EA4107304661461CBF41EA0551A2
S214037540F0BD52EA430C08BFC143F0BD00204FF420
S214037550001616EB410F98BF16EB430F08BF16EB4A
S214037560410F24BFC14305E016EB430F0CBF614632
S2140375704CEA0551F0BD0000F446400D40EAC12038
S214037580490006D200F00EF8004248BF6FF00040F4
S214037590604700F007F84FF0004188428CBF08466A
S2140375A04042604740F00040490DA1F58061491C08
S2140375B005D4D1F11F0154BFC840C01770474FF020
S2140375C0000070470FF23C00704780B5FEF74CFE94
S2140375D0002002BD00207047FEF747BEC0B201F090
S2140375E083BA00207047002070470020704780B59C
S2140375F09BB2D2B289B280B201F062FF002002BD14
S21403760000207047CB750300D5750300DD750300B6
S214037610D9750300E3750300E7750300EB750300F4
S214037620EF7503000176030009460300F5460300E1
S2140376302947030073470300795203007F52030070
S214037640695203005D520300595203006B52030054
S214037650675A0300215B0300595D03008F5A03003A
S214037660035703007B580300AD58030035A90300F6
S21403767003AA03009BB90300BFB90300E1BC0300E0
S21403768079BD0300A36F03009B480300A9480300CA
S21403769025B903004BB9030065B90300074B030084
S2140376A093B903006163030041630300314C030095
S2140376B0394C03004B4C03005F840300098403002A
S2140376C04784030013AF0300AFAE0300F7AE030017
S2140376D06F4E0300814E03008D5D0300C95D0300FA
S2140376E0815903008D5903000000000000000000CC
S2140376F00000000000000000FDF72CB9FDF72EB9CE
S21403770080B5084A12781AB1C9B280B2FDF725F9D6
S214037710002002BD002070470249087070470148E8
S21403772000787047F3AE0020FF2212EAD05C1DBF3C
S21403773012EAD153944593422BE09C44D30780EA44
S21403774001021A4043EA002043EA0121A1FB00306C
S214037750410038BF40007CF17F010BDBFE294ADA8B
S2140377605B0842EAC15153EA006373F1004C51EBE4
S21403777010207047D1F1080CDCF120012FDB5B08E9
S21403778010FA01F10B4373F1004120FA0CF050415B
S214037790704794451CBF02EAD153934280EA010224
S2140377A002F000421DD0400019D0490017D05BB943
S2140377B0634514D00902B1FA81F39940BCEB030C7C
S2140377C0C00140F00040C1E70002B0FA80FC10FAA6
S2140377D00CF0B3EB0C0CC90141F00041B6E7100006
S2140377E0704740000AD0490008D010F1807F94BF4C
S2140377F011F1807F02E042F0FF407047D0437047AC
S214037800DFF8DC0A007C7047DFF8D41A0874704788
S214037810DFF8D00A00787047DFF8C41A4874704758
S21403782010B5DFF8BC4A01F0DCFF606202F04DF8E9
S214037830A06202F094F8E062BDE8104001F082BE58
S21403784010B5DFF89C4A217C052927D1B0F5847F43
S21403785002D1207D48B903E042F20801884204D0F1
S21403786020780A2818BF032804D100F03BFF012024
S214037870207411E0E08B401CE08380B2B0F5FA7F01
S2140378800ADB0020E08300F04EFF002300220121E4
S214037890DFF8540A02F06AF8012010BD002010BD7C
S2140378A070B5DFF83C5A29780446287C012918BFAE
S2140378B00A29064601D1072801D1012000E000204D
S2140378C0FEF7A9FC287801281FD1082E1CBF072E17
S2140378D0052E1AD0288C297E401C2884002914BF24
S2140378E047F2305241F2707280B290420FD30020BA
S2140378F0288401B12876DFF8F4291268126900217A
S214037900322090470520287401E000202884687CF4
S214037910012804BFA878002807D100F053F90021F6
S2140379201D20FFF7EDFE00206874287C092811D17E
S2140379302878012804D00A2804BF6878052807D1C8
S214037940688C401C688480B2C92803DB00F08DF87D
S214037950002068842046FFF773FF012802D002F058
S214037960C2F9002070BD38B5DFF87449616A002596
S21403797000200201535C33B15518ED681D43002304
S214037980535401222275401C0528F2DBA16A00200D
S2140379900C224243535C33B15518AD681D43002394
S2140379A0535401226275401C0F28F1DBE16A002064
S2140379B011F830203AB101EBC0035B6843EA0205D5
S2140379C0002201F83020401C0D28F1DB2846FFF783
S2140379D067FF012808D025B1284600F043FB0020A6
S2140379E0A082BDE83140C7E331BD10B500F092F880
S2140379F012D0B0F5027F1BD0B0F5816F13D042F2E0
S214037A00080188422AD0DFF8E818884221D0DFF838
S214037A10E418884214D010BD01F094FD00F025F858
S214037A2000210D2019E000F0CDF800211D2014E000
S214037A3000F0D6F800F047F900F033F9012006E02D
S214037A4000F0CEF800F038F900F02BF90220E074CD
S214037A5010BD00F02AF900213E20E5E100F0B9F858
S214037A6000F0ADF80520207410BD0023002201218C
S214037A70DFF8840801F07ABF10B500F04BF81AD08F
S214037A80B0F5027F25D0B0F5816F1DD042F2080114
S214037A90884234D0DFF8581888422BD0DFF85418C1
S214037AA088421ED0DFF8541888422DD0DFF85018CD
S214037AB088422CD010BD00F076F90120A07500F0A6
S214037AC07EF8002116201EE000F07CF800211D2021
S214037AD019E000F085F800F0F6F800F0E2F801206F
S214037AE006E000F07DF800F0E7F800F0DAF8022090
S214037AF0E07410BD00F0D9F800213E2003E000F04A
S214037B002DFA002111208FE140F61E2001E040F6F9
S214037B10B830C2E0B0F5847FDFF8C447704710B5CD
S214037B2000F034F912D0B1F5027F25D0B1F5816F9C
S214037B301DD042F20802914234D0DFF8B4279142B6
S214037B402BD0DFF8B02791421ED010BDA17D0129AE
S214037B5008D100230022DFF8AC0701F007FF00205E
S214037B60A07501E000F0C0F900210D2019E000F037
S214037B7029F800211D2014E000F032F800F0A3F8E5
S214037B8000F08FF8012006E000F02AF800F094F8E1
S214037B9000F087F80220E07410BD00F086F800219C
S214037BA03E2041E100F0FAF800F009F800F011F881
S214037BB000F005F8052020740120E07510BD0A20AA
S214037BC0FCF79FBE002300220121DFF83C0701F0EB
S214037BD0CDBE4FF4FA70E08300210620FFF790BD78
S214037BE0002007E310B5DFF8F846E27C0146B1F55E
S214037BF0847FDFF804071AD0B1F5027F21D0B1F5F0
S214037C00816F19D042F20803994234D0DFF8E03688
S214037C1099422BD0DFF8DC3699421AD0DFF8DC36EF
S214037C20994231D0DFF8D836994232D010BD00F0F1
S214037C305BF900210D2022E0FFF7C4FF00211D2081
S214037C401DE0022A0DD100F03EF800F02AF80120CC
S214037C5018E0012A05D100F02FF800F022F80220E0
S214037C6010E000F0A0F80021162008E000F01DF850
S214037C7000213E2003E000F091F800211120FFF7D9
S214037C803FFD0020E07410BD00F079F840F61E209A
S214037C9003E000F06DF840F6B830BDE81040FFF79B
S214037CA080B900214120FFF72BBD002300220121CC
S214037CB0DFF8580601F05ABE002300220121DFF840
S214037CC0500601F053BE002300220121DFF84406CC
S214037CD001F04CBE10B500F059F81AD0B1F5027F8A
S214037CE021D0B1F5816F19D042F20802914230D00B
S214037CF0DFF8FC25914227D0DFF8F82591421AD009
S214037D00DFF8F825914229D0DFF8F42591422AD0EE
S214037D1010BD00F0E9F800210D201EE0FFF752FF2A
S214037D2000211D2019E0FFF75BFFFFF7CCFFFFF7ED
S214037D30B8FF012006E0FFF753FFFFF7BDFFFFF78D
S214037D40B0FF0220E07410BD00F02DF800211620CD
S214037D5003E000F023F80021112065E000F00FF89F
S214037D6040F61E2003E000F003F840F6B83094E730
S214037D70DFF878150FF2E0500968096B0847DFF85B
S214037D806C150FF2C8500968096B08470146B1F530
S214037D90847FDFF84C45DFF8600570470022002338
S214037DA0114601F0E3BD002200231146DFF8540517
S214037DB001F0DCBD10B5FFF7ADFE12D0B0F5027FC3
S214037DC015D0B0F5816F1CBF42F20801884222D05D
S214037DD0DFF81C15884219D0DFF8181588420ED034
S214037DE010BD002200231146DFF80C0518E0FFF74C
S214037DF0F7FEFFF768FFFFF754FF012004E0FFF7E5
S214037E005BFFFFF74EFF0220E07410BDFFF74DFF48
S214037E1000213E2008E0002200231146DFF8E40498
S214037E2001F0A4FD00211F20BDE81040FFF768BC49
S214037E3038B50446DFF8B454FCF768FE48B9FCF7D7
S214037E4065FE2A68126BBDE8384001460FF21450EF
S214037E501047B4F5847F35D0B4F5027F18BFB4F568
S214037E60816F3BD042F2080084421CBF44F20800F4
S214037E70844233D048F2080084421CBFDFF89804DB
S214037E8084422BD0DFF8940484421CBFDFF89004AE
S214037E90844223D0B4F1081F1CBFDFF85404844285
S214037EA01CD0DFF8800484421CBFDFF87C048442C5
S214037EB014D0DFF8400484421CBFDFF84004844239
S214037EC00CD031BD29680FF2B040096B8847DFF844
S214037ED0280400F009F800210D2001E000210C2001
S214037EE0BDE83440FFF70CBC00230022012101F05B
S214037EF03DBDDFF838140A78B0F5847F09D1521CEB
S214037F00D2B20F2ADFF82804A8BF002250F82200B6
S214037F1048600A707047B0F5847F00D0704780B51C
S214037F2001F0F0FDDFF8B8130120087401BD10B5A9
S214037F30B0F5847F0CD1DFF8A843217D41B100F072
S214037F400DF800211120FFF7DBFB0120207410BD84
S214037F50000702D5BDE8104080E010BD00220023D4
S214037F601146DFF8940301F001BD80B540F6080121
S214037F70401ADFF8C0235BD04FF40061401A60D08C
S214037F8042F6F971401A28D0C01F2ED008382CD0DC
S214037F9010382AD043F6E171401A20D0C01F29D0EA
S214037FA0083827D0103825D047F6E171401A18D084
S214037FB0C01F24D0083822D0103820D0DFF878131A
S214037FC0401A10D0C01F1FD008381DD010381BD041
S214037FD0DFF86813401A1CD001BD012006E001201B
S214037FE009E001200CE001200FE00020BDE802407C
S214037FF001F035BD0020BDE8024001F054BD00206D
S214038000BDE8024001F0E5BC0020BDE8024001F0F7
S214038010F2BCFFF784FB012804D1BDE80240002030
S214038020FFF77ABB0120FFF777FBBDE8044015E0B6
S2140380300120D07108230C20107050700121C04815
S21403804008E001201072392308205072907208321B
S2140380500121BC48BDE8005001F088BC0021062081
S214038060FFF74EBB70B59E4D2E7C0446FEF7F0FE22
S214038070A87CB4F5827F03D108B3287D40B91EE0FF
S214038080B4F5887F1BD100281CBF687D002816D056
S214038090687EA0B9954909680120A876096B0FF296
S2140380A0E02088470B2002F005FA012002F038FA98
S2140380B000210620FFF724FB012068762876072E8A
S2140380C003D12046BDE8704013E7082E03D12046AF
S2140380D0BDE870401FE7092E03D12046BDE8704077
S2140380E025E7287801280CD0022816D003280CD0C0
S2140380F004281AD0052814D00A281AD00E2808D027
S2140381001BE02046FFF771FC17E02046FFF7B4FCA0
S21403811013E02046FFF703FD0FE02046FFF7DAFDE6
S2140381200BE02046FFF75EFD07E02046FFF742FE22
S21403813003E02046FFF77CFE00242046BDE870409F
S21403814013E710B5664C21460220FCF7F8FB2178AE
S214038150E07E88420DD0654A0FF238201268126B13
S214038160904720780E2804D0A07D012804BF002065
S214038170A0752078E07610BD10B5734C207820B338
S214038180FCF71CFC6168491C814221D2022000F0E6
S21403819072F8042804BF012000F06DF8022000F0F6
S2140381A06AF80E2806D16078012803D0012000F073
S2140381B062F807E0002300220121524801F0D6FBB3
S2140381C0002060700020207010BDFCF7F7FB606095
S2140381D010BD80B542480078052805D1FFF7EFFCAF
S2140381E0BDE80240012005E0BDE8044001211A2055
S2140381F0FFF786BA70B504003C4D394E06D1317888
S2140382002A680FF2A0103177126B9047012C31D1F8
S2140382102A68317F126B0FF2A4109047317F3648DD
S21403822002290BD0032904D0042914D00E290AD01E
S21403823016E0FFF759FE00210D2017E0FFF735FD86
S21403824000213E2012E0BDE87040002200231146C4
S2140382502C4801F08BBBFFF7B5FC00211D2005E081
S214038260FFF79CFDFFF7ABFC01211A20BDE8704029
S214038270FFF746BA70BD70B505001C4E184C06D104
S214038280217832680FF24C106177126B9047012DFC
S21403829024D13268617F126B0FF248109047607FDB
S2140382A0042812D00E2817D1FFF77DFD0120FEF714
S2140382B04FFE0020FCF7F1FA0020FCF7F5FA3168D0
S2140382C00FF23410096B884706E00F48FFF70CFEE1
S2140382D000211D20FFF714FA00206077607F70BD31
S2140382E050AC002016BC0020200000F00CBC002080
S2140382F00800100008000001020000F00800000259
S21403830008000004020008F0010000F0000800F076
S214038310018000F0040000F00800010008000200DD
S214038320080004000800200008004000C4BB00202A
S2140383303CAB002038B70020E1FF0200E8FF1B003B
S214038340100000F0080000F0CCBB00204B45595F3E
S21403835041444A55535400004B45595F41444A55DE
S21403836053543100626174746572795F737769740C
S21403837063683D25640D0A003636360D0A00000094
S2140383805553455F554152545F5749464921210D80
S2140383900A0000006E65775F73746174653A25643E
S2140383A0200D0A00736176655F73746174655F6799
S2140383B07269643D25640D0A000000007265636FF0
S2140383C07665725F73746174655F677269643D2571
S2140383D0640D0A00736176655F73746174653D2589
S2140383E0640D0A007265636F7665725F73746174F9
S2140383F0653D25640D0A0000726F626F7420737406
S2140384006F700D0A00000000CA484068704710B538
S214038410C949C84C0968496C04F124008847606858
S214038420401C6060A068401CA06060780628B4BF4B
S214038430401C0620607010BDBE490020886070474F
S214038440BC4880687047BB4800214160816041702A
S214038450704700E000BFB7490120087070472DE958
S214038460F04F87B0002401A90DF10600FCF7B6FA19
S21403847002A90DF10A00FCF77DFABDF90A00DFF840
S214038480BCB2DFF8BC82AF4FAA4DAB4EDFF8B8A242
S214038490FCF77EFFAD49FDF71BF8514602F064F882
S2140384A009D8BDF90800FCF773FFA849FDF710F8D3
S2140384B0514602F059F800F2A9803168496C03A8C6
S2140384C0884700F005F901463846FFF72DF981463F
S2140384D0686869699E4F81424FF07E5A19D0686179
S2140384E09C49A869EA7802F03FF803D83C2A03DAE5
S2140384F0521D01E002B1521EEA70E9780F2905DB2E
S21403850032680FF26820126B90470FE0C5F81CA084
S21403851002E09DF8000068B90920FCF79FFE2828B2
S21403852006DA0C20FCF79AFE282801DAEF6101E050
S214038530C5F81CA06878C5F818900428C0F2BF8058
S214038540D5F81CA02F78E9685046FFF7EDF800F041
S214038550BCF800D257B150464146FFF7E5F800F0A5
S214038560B4F880F0AE80012F40F0AB802869FCF7AA
S214038570E8F9A97841F27072904238BF491C01D3DA
S21403858001B1491EA970A878042809DB724831682E
S214038590E8600320A870096B0FF2E410884701E037
S2140385A06E48E860BDF90400BDF90670E9680090FE
S2140385B05846FFF7B9F8FCF7C9FE804648465946C1
S2140385C0FFF7B2F8FCF7C2FE3B463768D7F830B081
S2140385D0014642460FF2BC10D847BDF904000128F5
S2140385E0A4BFBDF90600012862DBFCF7E2F9002808
S2140385F05ED1286A10B9FCF7A3F958E0FCF7A1F995
S214038600B0F57A6F38BF0124002050E0BDF90A00A8
S214038610FCF78AFA1F2805DABDF90800FCF784FA86
S2140386201F284BDB687804284BDB3168496C03A8AA
S214038630884700F04DF801463846FFF775F8D5F839
S2140386401CA02F78464981465046FFF76DF800F088
S2140386503CF800D247B150464146FFF765F800F0B4
S21403866034F82ED2012F2CD148465946FFF75CF832
S214038670FCF76CFE3268126B01460FF2301090471F
S214038680BDF904000128A4BFBDF9060001280FDBCD
S214038690FCF78FF960B9286A10B9FCF751F906E0C0
S2140386A0FCF74FF9B0F57A6F38BF01240020286233
S2140386B000F013F8FCF744F9286102E06C7000F050
S2140386C00CF8204607B0BDE8F08F494601F05EBFC0
S2140386D005F1240103A8FCF759B93168496C05F183
S2140386E02400084738B5144C2268926C1C210420D9
S2140386F0904701218DF8001004218DF80110002108
S2140387008DF802100121174D8DF803102860002202
S2140387101549FCF705F923682868DB6B00AA4FF4B4
S2140387201021984731BD04490E4809680068C96C92
S2140387300847000080AC00200CBC00200000C842A4
S214038740E969564300007A440100F04133A53240FC
S2140387500000C04015279943142799437EC8B742A3
S214038760C2CAE842F8AE00200F8403007374617334
S2140387706973206F7665722C25640D0A000000006D
S214038780616C776179732073746173697321212136
S21403879021210000737461736973202564202564A6
S2140387A0202825642C256429210D0A00737461731F
S2140387B0697332202564210D0A00000070B5002479
S2140387C00FF204257A4E7B483268126A00EB840067
S2140387D00121006A904710F1010F04D13268126B31
S2140387E0214628469047641C062CECDB002070BD0F
S2140387F038B56F4C0FF2E4102168096B88476E4852
S2140388004FF4407101F0D4FE6A4D062105F11000C5
S21403881001F0CEFE0621694801F0CAFE062105F1E5
S214038820180001F0C5FE0621284601F0C1FE062108
S21403883005F1080001F0BCFEFFF7C0FF002528463F
S21403884001F0CFFE6D1C062DF9DB21680FF29C109C
S214038850096BBDE83440084710B5564A564C821893
S21403886004EBC010137C1954581C1074C0B2802833
S214038870A4BF00201074107E401C107610BD4F4A13
S2140388804D49835C01EBC011595C5B1C8354DBB21E
S214038890802BA4BF00238354464A8018027E521EB0
S2140388A002760846704743494018007E08B90120FF
S2140388B07047002070473F494018007E802801D14A
S2140388C001207047002070472DE9F0410024DFF8AF
S2140388D0E080384ED8F80010496906EB8400006A39
S2140388E08847A75DC04340087F41A755A519287A46
S2140388F0401C2872C0B208280BD1E0B2FFF7DBFF9A
S214038900012806D0F9B2E0B2FFF7A6FF0020A05573
S2140389102872641C062CDDDBBDE8F081F8B5002464
S214038920274DE0B2FFF7BFFF012827D0E0B2FFF7DD
S214038930A6FF06460027C7F1070026FA00F101F056
S2140389400101E0B201F05BFEA0B11E490A2202FB60
S2140389500411097971B1022803D1142029706870B3
S21403896003E0012804BF281D2154281D05F10C012E
S214038970205C60547F1C082FDDDBD2E7641C062CCA
S214038980CFDBF1BD0E494118002208790A71704702
S2140389900B4908784A7822B1521E4A70D2B202B9FD
S2140389A00A707047064941180022087B0A7370470D
S2140389B00CBC002078AB0020FCAE0020ECBB0020F3
S2140389C054BB0020FCB80020697220696F206E6FCC
S2140389D074206F6B20693D25640D0A0069725F720F
S2140389E0785F696E69740D0A0000000069725F7231
S2140389F0785F696E6974206F6B21210D0A00000091
S214038A0070B44FF0004591EA030C44BF6B40FEF789
S214038A10D9BB00BF841A71EB030603D2001BB14116
S214038A20121973414FF4001C1CEB410F34BF7CEB4F
S214038A30430443E00C0DA4EB1356352E50DC45EAF5
S214038A40C323DB0A45EAC121C912B6F120050DDDB1
S214038A5063FA05F6EB4086EA0305124218BF45F0B3
S214038A600105C01851F100010CD213E062FA06F5B5
S214038A70F2405540F3415A40B340F3405A40801801
S214038A80594107D349085FEA30005FEA350528BF36
S214038A9045F0010501F58011420875F1004250F1D9
S214038AA0000041EB045170BC4FF4001C1CEB410F5B
S214038AB038BF70470020090D090570471CEB410FAE
S214038AC010D252EA43060BD0BCEB410F05D80C0D6F
S214038AD0AB43661E342EB5DD02E0AB438018594126
S214038AE070BC704770BC704710B50446FEF789F932
S214038AF0122C14D0142C0FD0262C04D0272C05D0DF
S214038B00282C06D00FE000211B200AE000211120AC
S214038B1007E00021052004E0FFF75BFB03E00021EC
S214038B200220FEF7EDFD002010BD000030B500F07A
S214038B301BF801248C4020421CBF02EB41039B8898
S214038B40491C0829F5DB138030BD30B500F00CF85E
S214038B5001248C4020421CBF02EB41039B8A491C24
S214038B600829F5DB138030BDDFF8E42913880021DC
S214038B70704730B5FFF7F8FF01248C4020421CBF36
S214038B8002EB41039B8C491C0829F5DB138030BD9F
S214038B9070B5DFF8BC29DFF8BC491388002101252E
S214038BA08D40284218BF34F81130491C0829F6DBDB
S214038BB0138070BD70B50446A00603D5DFF8981978
S214038BC0022008706006DFF89459DFF894690FD521
S214038BD0307C40F010003074F07C48B90120F0740B
S214038BE0FBF7AEFEB06129680FF6A810096B88473D
S214038BF020060AD5307C296800F0EF003074096B34
S214038C000FF6A41088470020F07470BD2DE9F041DC
S214038C1004466006DFF84C59DFF84C69DFF83C89F8
S214038C20DFF83C791FD5387C40F004003874387D73
S214038C30B8B9D8F800100FF68810096B8847DFF824
S214038C402C190320087020214FF6FF7070843046DD
S214038C5001F0AEFC0020288086F82000FBF770FEAB
S214038C60B06201203875200618D5387C00F0FB006A
S214038C703874387D01280ED100203875287086F8A0
S214038C8020002021304601F093FCD8F800100FF6A0
S214038C905410096B8847FBF753FEB062BDE8F081BA
S214038CA0704738B5044600F08DFE2178C1F3801274
S214038CB042EA410101700122A17B4170E17B817090
S214038CC0022100EBC2030D5D5D70521C0D19891C59
